:020000040800F2
:100000007006002091010008990100089B0100087A
:100010009D0100089F010008A101000800000000E8
:10002000000000000000000000000000A301000824
:10003000A501000800000000A7010008A9010008B0
:10004000AB010008AB010008AB010008AB010008E0
:10005000AB010008AB010008AB010008AB010008D0
:10006000AB010008AB010008AB010008AB010008C0
:10007000AB010008AB010008AB010008AB010008B0
:10008000AB010008AB010008AB010008AB010008A0
:10009000AB010008AB010008AB010008AB01000890
:1000A000AB010008AB010008AB010008AB01000880
:1000B000AB010008AB010008AB010008AB01000870
:1000C000AB010008AB010008AB010008AB01000860
:1000D000AB010008AB010008AB010008AB01000850
:1000E000AB010008AB010008AB01000800F002F80A
:1000F00000F03FF80AA090E8000C82448344AAF183
:100100000107DA4501D100F034F8AFF2090EBAE880
:100110000F0013F0010F18BFFB1A43F0010318473B
:100120002012000040120000103A24BF78C878C1A5
:10013000FAD8520724BF30C830C144BF04680C60ED
:10014000704700000023002400250026103A28BF35
:1001500078C1FBD8520728BF30C148BF0B60704739
:10016000642900F07D80002070471FB51FBD10B5C9
:1001700010BD00F02AF91146FFF7F7FF01F02AF849
:1001800000F048F903B4FFF7F2FF03BC00F050F9A8
:100190000948804709480047FEE7FEE7FEE7FEE71B
:1001A000FEE7FEE7FEE7FEE7FEE7FEE70448054957
:1001B000054A064B70470000AD090008ED00000835
:1001C00070000020700600207002002070020020E5
:1001D0000FB41CB5074B06AA7B44694600900598EE
:1001E00000F0DBF80020694600F0EAF81CBC5DF87E
:1001F00014FB0000E50100002DE9F0410E46044625
:10020000002020622046E168884730B3252805D0C9
:10021000D4E901219047206A401CF2E7E1682046BA
:1002200000278847050018D0A5F14100192802D8F9
:1002300020354FF400673246294620462760FFF7F5
:100240008FFF40B1012804D0F61D26F007060836BE
:10025000D8E7361DD6E72846DAE7206ABDE8F08100
:100260002DE9F0410646002410687529314616A58F
:1002700010D0AFF30080002802DA404213A507E057
:1002800031688A0701D512A502E0490704D511A5F6
:10029000012401E0AFF3008000210A2206F12407C7
:1002A00009E0B0FBF2FCB0FBF2F302FB1C003030C3
:1002B00078541846491C0028F3D123462A46304674
:1002C000BDE8F04100F00BB8000000002D00000078
:1002D0002B000000200000007047704770472DE998
:1002E000F0470D4699469246044600F124080168FD
:1002F000880604D5E06921F01001216000E00120AA
:10030000A84201DD471B00E00027A1697A1902EB32
:100310000900081AA0612078C00602D42046AFF375
:100320000080002608E0D4E901211AF80600904771
:10033000206A401C761C20624E45F4DB2078C00603
:100340000AD52046AFF3008006E0D4E90121302031
:100350009047206A401C2062381EA7F10107F4DC98
:1003600007E0D4E9012118F805009047206A401CF5
:100370002062281EA5F10105F3DC2046AFF30080C2
:100380002078000602D50220BDE8F0870120FBE7B7
:1003900001694A1C02610878704700B58FB0CDE949
:1003A00001310021059105497944CDE90310114639
:1003B0006846FFF721FF0FB000BD0000E5FFFFFF1B
:1003C0000A6802F8010B0A607047754600F02CF8C5
:1003D000AE4605006946534620F00700854618B032
:1003E00020B5FFF7E3FEBDE820404FF000064FF0D8
:1003F00000074FF000084FF0000B21F00701AC465A
:10040000ACE8C009ACE8C009ACE8C009ACE8C00978
:100410008D46704710B50446AFF300802046BDE816
:100420001040FFF7AFBE0000004870470C000020EE
:1004300001491820ABBEFEE726000200704710B548
:1004400000214FF0804000F0F0FA00BF4FF08040F4
:1004500000F0E8FAB0F57A7FF8DB10BD10B504467D
:1004600002E0FFF7ECFF641E002CFAD110BD2DE96D
:10047000F04102460025002600200023002400272A
:1004800091F803C00CF00F0591F803C00CF0100CAC
:10049000BCF1000F03D091F802C04CEA050591F8B9
:1004A00000C0BCF1000F31D0146800202BE04FF0E9
:1004B000010C0CFA00F3B1F800C00CEA03069E42EE
:1004C00020D183004FF00F0C0CFA03F7BC4305FA60
:1004D00003FC4CEA040491F803C0BCF1280F06D1D8
:1004E0004FF0010C0CFA00FCC2F814C00AE091F8BD
:1004F00003C0BCF1480F05D14FF0010C0CFA00FC11
:10050000C2F810C0401C0828D1D31460B1F800C054
:10051000BCF1FF0F34DD546800202EE000F1080C20
:100520004FF0010808FA0CF3B1F800C00CEA03061A
:100530009E4221D183004FF00F0C0CFA03F7BC430D
:1005400005FA03FC4CEA040491F803C0BCF1280F3F
:1005500005D100F1080C08FA0CF8C2F8148091F8E3
:1005600003C0BCF1480F07D100F1080C4FF001089F
:1005700008FA0CF8C2F81080401C0828CED354604A
:10058000BDE8F0810246002093680B400BB10120CA
:1005900000E0002070474161704701617047000032
:1005A00010B504461CB101200449C87002E00020C7
:1005B0000249C87000F00AF810BD000000000020D9
:1005C00010B5012000F076F810BD000010B5002431
:1005D0000EE00B4800784010094908700948005D9A
:1005E00020B10846007840F080000870601CC4B25A
:1005F000082CEEDB012202494E2000F0CEF810BD9F
:10060000080000200000002010B53220FFF726FF70
:1006100000F034F9002404E000201B490855601C58
:10062000C4B2082CF8DBFFF7D1FF00201649087090
:10063000FFF7CCFF002014494870FFF7C7FF0320E5
:1006400000F050F80520FFF709FF032000F04AF8FA
:100650000120FFF703FF032000F044F80120FFF71B
:10066000FDFE022000F03EF80120FFF7F7FE2820F3
:1006700000F020F80C2000F01DF80E2000F01AF811
:10068000012000F017F810BD0000002010B5C020B8
:1006900000F010F810BD10B5044607E0207820B136
:1006A00014F8010B00F0D2F800E000E0F6E700BF1C
:1006B00010BD000010B5044600F092F80020084973
:1006C0000870FFF783FF002005494870FFF77EFFA1
:1006D000201100F007F8204600F004F810BD0000DB
:1006E0000000002010B5044604F0080018B10120F5
:1006F0001749C87102E000201549C87104F00400D0
:1007000018B101201249887102E000201049887157
:1007100004F0020018B101200D49487102E00020E8
:100720000B49487104F0010018B101200849087113
:1007300002E0002006490871012005498870FFF792
:1007400045FF002002498870FFF740FF10BD000000
:10075000000000202DE9F04107460D46164600F046
:10076000B3FC384600F0EAFC20B900F0CDFC0020D4
:10077000BDE8F081002405E0012000F05DFC285573
:10078000601CC4B2701EA042F6DC002000F054FCD5
:10079000285500F0B9FC0120EAE72DE9F0410746B1
:1007A0000D46164600F090FC384600F0C7FC20B914
:1007B00000F0AAFC0020BDE8F081002409E0285DDB
:1007C00000F0BCFC18B900F09FFC0020F3E7601CAF
:1007D000C4B2B442F3DB00F097FC0120EBE7000069
:1007E00008B501201849087148718871C871FFF770
:1007F000EDFE002014490870FFF7E8FE01201249C1
:100800004870FFF7E3FE00BF01200F498870FFF733
:10081000DDFE012269464F20FFF79CFF00200A49B8
:100820008870FFF7D3FE012007498870FFF7CEFEDE
:10083000002005498870FFF7C9FE9DF8000000F010
:1008400008000028E0D108BD0000002010B50446D3
:10085000FFF7C6FF012008490870FFF7B7FE002028
:1008600005494870FFF7B2FE2011FFF73BFF204615
:10087000FFF738FF10BD00000000002010B500F0A9
:10088000BFFB10BD29B1064AD2690243044BDA61AD
:1008900004E0034AD2698243014BDA6170470000E9
:1008A0000010024029B1064A92690243044B9A6142
:1008B00004E0034A92698243014B9A617047000049
:1008C0000010024010B500F001F810BD0CB500207A
:1008D000019000903348006840F48030314908604E
:1008E00000BF3048006800F4003000900198401CC0
:1008F0000190009818B90198B0F5A06FF1D129487E
:10090000006800F4003010B10120009001E00020E8
:1009100000900098012843D12348006840F010005F
:10092000214908600846006820F007000860084672
:10093000006840F0020008601A48406819494860A1
:100940000846406848600846406840F48060486057
:100950000846406820F47C1048600846406840F42F
:10096000E81048600846006840F08070086000BFEA
:100970000C48006800F000700028F9D00948406871
:1009800020F00300074948600846406840F0020034
:10099000486000BF0348406800F00C000828F9D107
:1009A0000CBD0000001002400020024010B51348AA
:1009B000006840F00100114908600846406810498D
:1009C00008400E494860084600680E4908400B4937
:1009D00008600846006820F48020086008464068E7
:1009E00020F4FE0048604FF41F008860FFF76AFFA4
:1009F0004FF000600449086010BD00000010024084
:100A00000000FFF8FFFFF6FE08ED00E021B10288CC
:100A100042F00102028004E002884FF6FE731A40A1
:100A2000028070470146888C7047818470470000BF
:100A3000002202881D4B98420ED01D4B98420BD0CD
:100A4000B0F1804F08D01B4B984205D01A4B98420A
:100A500002D01A4B984204D14FF68F731A404B883C
:100A60001A43174B984207D0164B984204D04FF6C2
:100A7000FF431A40CB881A4302808B8883850B88FA
:100A800003850A4B98420BD0094B984208D00E4B75
:100A9000984205D00D4B984202D00D4B984201D19F
:100AA0000B7A03860123838270470000002C0140EB
:100AB000003401400004004000080040000C0040E9
:100AC000001000400014004000400140004401407C
:100AD0000048014010B5044600214FF08040FFF768
:100AE000A4FF00BF4FF08040FFF79CFFA042F9D366
:100AF00010BD000008B501210820FFF7D3FE142027
:100B00008DF803004FF48070ADF8000003208DF8DD
:100B1000020069460448FFF7AAFC4FF480710248BE
:100B2000FFF73BFD08BD0000000C01402DE9FC4132
:100B300006464FF48071F948FFF72DFD1420FFF7AA
:100B40008DFC4FF48071F548FFF727FD00214FF031
:100B50008040FFF76AFF06E04FF48071EF48FFF72F
:100B600011FD00B105E04FF08040FFF75BFF0A2860
:100B7000F2DB00BF4FF08040FFF754FF04460A2C21
:100B800002DB0020BDE8FC8100214FF08040FFF730
:100B90004CFF06E04FF48071E048FFF7F3FC00B92A
:100BA00005E04FF08040FFF73DFF2D28F2DB00BF4E
:100BB0004FF08040FFF736FF04462D2C01DA052C5C
:100BC00001DC0020DEE700214FF08040FFF72DFF21
:100BD00006E04FF48071D148FFF7D4FC00B105E086
:100BE0004FF08040FFF71EFF5A28F2DB00BF4FF0A6
:100BF0008040FFF717FF04465A2C01DA462C01DC2F
:100C00000020BFE700214FF08040FFF70EFF06E015
:100C10004FF48071C148FFF7B5FC00B905E04FF013
:100C20008040FFF7FFFE5F28F2DB00BF4FF08040FF
:100C3000FFF7F8FE04465F2C01DA4B2C01DC0020A4
:100C4000A0E7002554E000214FF08040FFF7EDFEC3
:100C500006E04FF48071B148FFF794FC00B105E065
:100C60004FF08040FFF7DEFE4128F2DB00BF4FF07F
:100C70008040FFF7D7FE0446412C01DA2D2C01DC21
:100C800000207FE700214FF08040FFF7CEFE06E016
:100C90004FF48071A148FFF775FC00B905E04FF0F3
:100CA0008040FFF7BFFE5028F2DB00BF4FF08040CE
:100CB000FFF7B8FE0446502C01DA0A2C01DC0020B4
:100CC00060E79DF800004006000E8DF800002D2C16
:100CD00006DD9DF8000040F001008DF8000005E001
:100CE0009DF8000020F001008DF80000681CC5B2DE
:100CF000082DA8DB002554E000214FF08040FFF7CD
:100D000094FE06E04FF480718448FFF73BFC00B18D
:100D100005E04FF08040FFF785FE4128F2DB00BF81
:100D20004FF08040FFF77EFE0446412C01DA2D2C67
:100D300001DC002026E700214FF08040FFF775FE20
:100D400006E04FF480717548FFF71CFC00B905E020
:100D50004FF08040FFF766FE5028F2DB00BF4FF0F7
:100D60008040FFF75FFE0446502C01DA0A2C01DCBC
:100D7000002007E79DF801004006000E8DF80100F5
:100D80002D2C06DD9DF8010040F001008DF80100DA
:100D900005E09DF8010020F001008DF80100681CBD
:100DA000C5B2082DA8DB002554E000214FF080409B
:100DB000FFF73BFE06E04FF480715848FFF7E2FB77
:100DC00000B105E04FF08040FFF72CFE4128F2DB38
:100DD00000BF4FF08040FFF725FE0446412C01DAAA
:100DE0002D2C01DC0020CDE600214FF08040FFF7E4
:100DF0001CFE06E04FF480714848FFF7C3FB00B9C2
:100E000005E04FF08040FFF70DFE5028F2DB00BFF9
:100E10004FF08040FFF706FE0446502C01DA0A2C02
:100E200001DC0020AEE69DF802004006000E8DF8C1
:100E300002002D2C06DD9DF8020040F001008DF827
:100E4000020005E09DF8020020F001008DF802008C
:100E5000681CC5B2082DA8DB002554E000214FF026
:100E60008040FFF7E2FD06E04FF480712B48FFF76A
:100E700089FB00B105E04FF08040FFF7D3FD41282A
:100E8000F2DB00BF4FF08040FFF7CCFD0446412C61
:100E900001DA2D2C01DC002074E600214FF08040A7
:100EA000FFF7C3FD06E04FF480711C48FFF76AFBB3
:100EB00000B905E04FF08040FFF7B4FD5028F2DBA9
:100EC00000BF4FF08040FFF7ADFD0446502C01DA23
:100ED0000A2C01DC002055E69DF803004006000EB8
:100EE0008DF803002D2C06DD9DF8030040F0010075
:100EF0008DF8030005E09DF8030020F001008DF857
:100F00000300681CC5B2082DA8DB002557E00021AE
:100F10004FF08040FFF789FD09E00000000C014020
:100F20004FF480713548FFF72DFB00B105E04FF01D
:100F30008040FFF777FD4128F2DB00BF4FF0804093
:100F4000FFF770FD0446412C01DA2D2C01DC002056
:100F500018E600214FF08040FFF767FD06E04FF4F0
:100F600080712648FFF70EFB00B905E04FF0804086
:100F7000FFF758FD5028F2DB00BF4FF08040FFF72D
:100F800051FD0446502C01DA0A2C01DC0020F9E561
:100F90009DF804004006000E8DF804002D2C06DD9F
:100FA0009DF8040040F001008DF8040005E09DF874
:100FB000040020F001008DF80400681CC5B2082D63
:100FC000A5DB9DF800009DF8011008449DF8021073
:100FD00008449DF803100844C7B29DF80400B842C5
:100FE00001D00020CEE5002504E01DF80500705575
:100FF000681CC5B2042DF8DB0120C3E5000C0140DC
:1010000008B501210420FFF74DFC14208DF80300E2
:101010000320ADF800008DF8020069460548FFF78F
:1010200026FA01210348FFF7B8FA02210148FFF729
:10103000B4FA08BD0008014070B5054601212148F9
:10104000FFF7ABFA0320FFF745FD00261BE0600623
:10105000040E02211B48FFF7A0FA0320FFF73AFD18
:1010600001211848FFF78EFA08B144F0010402206C
:10107000FFF730FD02211348FFF78DFA0520FFF737
:1010800029FD701CC6B2082EE1DB25B101210D48F7
:10109000FFF781FA03E001210A48FFF77EFA0320F7
:1010A000FFF718FD02210748FFF777FA0520FFF741
:1010B00011FD02210348FFF76EFA0520FFF70AFD34
:1010C000204670BD0008014010B502210D48FFF711
:1010D00064FA0320FFF7FEFC01210A48FFF75DFADE
:1010E0000320FFF7F7FC01210648FFF754FA03201D
:1010F000FFF7F0FC02210348FFF74DFA0320FFF74A
:10110000E9FC10BD0008014010B501210A48FFF7B5
:1011100042FA0320FFF7DEFC02210748FFF73DFA01
:101120000320FFF7D7FC01210348FFF736FA03201D
:10113000FFF7D0FC10BD00000008014070B5044668
:10114000002620E004F0800020B101212048FFF7B4
:1011500024FA03E001211E48FFF71DFA0320FFF7E0
:10116000B9FC02211A48FFF718FA0520FFF7B2FC74
:1011700002211748FFF70FFA0220FFF7ABFC6006C9
:10118000040E701CC6B2082EDCDB01211048FFF7EC
:1011900004FA0320FFF79EFC02210D48FFF7FDF93A
:1011A0000320FFF797FC01210948FFF7EBF908B18D
:1011B000002500E001250220FFF78CFC02210448F5
:1011C000FFF7E9F90520FFF785FC284670BD000010
:1011D000000801408AB0FFF78DFC01211020FFF7C5
:1011E00061FB01210420FFF75DFB01210846FFF7A9
:1011F00049FB10208DF827004002ADF824000320A1
:101200008DF8260009A93648FFF731F910208DF82E
:1012100027000120ADF8240003208DF8260009A93D
:101220003048FFF724F90020ADF81A004FF6FF70A0
:10123000ADF81C004720ADF8180006A94FF080401B
:10124000FFF7F6FB01218807FFF7E0FBFFF7D8FE69
:10125000FFF7DAF9FFF7B4F90120FFF7A1F922A0AF
:10126000FFF719FAFFF712FA23A0FFF714FA36E096
:101270006846FFF75BFCB0B1FFF7A2F99DF80020CC
:1012800022A101A8FEF7A4FF01A8FFF704FAFFF7C7
:10129000FDF99DF8022022A101A8FEF799FF01A8FF
:1012A000FFF7F9F904E0FFF78BF922A0FFF7F3F954
:1012B0004FF4FA60FFF7D2F84FF400510848FFF7F7
:1012C0006CF94FF4FA70FFF7C9F84FF40051044875
:1012D000FFF761F94FF4FA70FFF7C0F800BFC7E7F6
:1012E000001001400008014053544D333246313064
:1012F000334338543600000053544D3332204448B1
:10130000543131204C43442049324300446F206122
:101310006D3A20256420202020202020000000009D
:101320004E6869657420646F3A202564202020206F
:10133000000000004448543131204572726F720041
:1013400060130008000000200C00000028010008C5
:101350006C1300080C000020640600004401000823
:0C13600000000000000000000000000081
:04000005080000ED02
:00000001FF
